:020000040800F2
:10000000780600202503000889130008D112000893
:10001000851300089104000809150008000000007D
:100020000000000000000000000000009113000824
:1000300095040008000000008D13000895130008C7
:1000400041030008410300084103000800000000CC
:1000500041030008410300084103000800000000BC
:1000600041030008410300080000000041030008AC
:100070004103000841030008410300084103000850
:100080004103000841030008410300084103000840
:100090004103000841030008410300084103000830
:1000A0004103000841030008410300084103000820
:1000B0004103000841030008410300084103000810
:1000C0004103000841030008410300084103000800
:1000D000000000004103000841030008410300083C
:1000E00041030008410300084103000841030008E0
:1000F000410300084103000841030008000000001C
:10010000000000004103000841030008410300080B
:1001100041030008410300084103000841030008AF
:10012000410300084103000841030008410300089F
:100130004103000800000000000000004103000827
:100140004103000800000000000000000000000063
:100150000000000000000000410300080000000053
:1001600000000000000000004103000841030008F7
:10017000000000000000000000000000000000007F
:10018000000000000000000000000000000000006F
:10019000000000000000000000000000000000005F
:1001A00000000000000000004103000841030008B7
:1001B000410300084103000841030008410300080F
:1001C0004103000841030008000000000000000097
:1001D00000000000000000000000000041030008D3
:1001E00041030008000000000000000000000000C3
:1001F00000000000000000000000000000000000FF
:100200000000000041030008410300080000000056
:100210000000000041030008000000000000000092
:100220000000000000000000000000004103000882
:100230004103000800000000000000000000000072
:100240000000000000000000000000004103000862
:10025000410300084103000800F002F800F052F8E2
:1002600014A696E8000CB244B344DA4501D100F07C
:1002700049F8BAE80F000FA696E83000A5EB040590
:1002800004EB0607AAEB0704A7F101074FEA1515CF
:100290004FEA3414A4F10104AC4201D300F032F867
:1002A00013F0010F18BFFB1A43F0010300F001F82F
:1002B000DBE71847A0120000C0120000103A24BF6C
:1002C00078C878C1FAD8520724BF30C830C144BFBB
:1002D00004680C6070470000704700000023002491
:1002E00000250026103A28BF78C1FBD8520728BF46
:1002F00030C148BF0B6070471FB501F015F91FBD35
:1003000010B510BD00F05AF81146FFF7F5FF01F0E7
:10031000FDF800F078F803B4FFF7F2FF03BC00F03B
:100320007FF800000A4880470A480047FEE7FEE7DA
:10033000FEE7FEE7FEE7FEE7FEE7FEE7FEE7FEE795
:10034000FEE7000004480549054A064B70470000D7
:100350006114000859020008780000207806002087
:1003600078020020780200204FF0000200B513460A
:1003700094469646203922BFA0E80C50A0E80C50C5
:10038000B1F12001BFF4F7AF090728BFA0E80C5076
:1003900048BF0CC05DF804EB890028BF40F8042B6F
:1003A00008BF704748BF20F8022B11F0804F18BFDC
:1003B00000F8012B7047704770477047754600F092
:1003C0002BF8AE4605006946534620F007008546E7
:1003D00018B020B5FFF7B6FFBDE820404FF000068B
:1003E0004FF000074FF000084FF0000BAC46ACE8B0
:1003F000C009ACE8C009ACE8C009ACE8C00921F00C
:1004000007018D46704710B50446AFF300802046C3
:10041000BDE81040FFF77FBF004870471000002084
:1004200001491820ABBEFEE726000200704700001D
:100430000020C4F202202021002200F00BB90000AD
:10044000B0B540F27005C2F2000528780024C4F26D
:100450000224687004F500604FF4005100F0F4F8D5
:100460000128287018BFB0BD687868B920462021DF
:1004700000F0EAF8421E18BF012220462021BDE804
:10048000B04000F0E7B800BFB0BD0000704700000A
:10049000FEE7000070470000B0B5044600F0E0F849
:1004A000054640F20000C2F200000078611C18BF4F
:1004B000044400BF00F0D4F8401BA042FAD3B0BD02
:1004C0000A68002A08BF70472DE9F04F83B000F199
:1004D0002003019347F67F73C0F22F0303EA9023B2
:1004E0004FF0000A4FF0010B00274FF0000C0025E1
:1004F00000930BE00A68013532FA05F30CF1040CA5
:1005000007F102070AF1080A00F09A800BFA05F9D0
:1005100012EA0902EED0D1F80480029248F01006E7
:10052000122E1BD16FF0030202EA5506DDF804B06B
:100530000CF01C025BF80640D1F810800F2303FA80
:1005400002FE08F00F0324EA0E0403FA02F222432B
:100550004BF80620D1F804804FF0010B026803230A
:10056000BB4008F0030EDC439A430EFA07F31A432C
:10057000B8F1120F02605BD80BFA08F212F0061FF6
:1005800056D08368D1E902262340BE4033438360BE
:1005900043684FEA181623EA0903AE403343436029
:1005A000C368BA4023401A43C260029C5FEAC80293
:1005B000A0D542F2000E25F00302C4F2024E7244AE
:1005C000D2F860800AF018060F23B34028EA030827
:1005D000009B03FA06F648EA06031366DEF800807D
:1005E0004B6848EA0406DA0258BF28EA0406CEF847
:1005F0000060DEF804809A0248EA040658BF28EA40
:100600000406CEF80460DEF884809A0348EA040603
:1006100058BF28EA0406CEF88460DEF88020DB03A9
:1006200042EA040658BF22EA0406CEF8806061E779
:100630008A68BEF1030F08BF012AB1D1B5E700BF38
:1006400003B0BDE8F04F70470069084018BF0120B3
:10065000704700001823002A08BF2823C1507047A4
:1006600040F27400C2F200000068704740F200419E
:10067000C4F203010A68D2071CBF012070470A6850
:1006800022F00402104308600020704740F200414D
:10069000C4F20301086840F0010200200A607047BC
:1006A00040F2000040F27401C2F20000C2F2000108
:1006B00000780A68104408607047000080B5032085
:1006C00000F0A4F800F0E2F940F62041C4F2024143
:1006D000096841F2425201F00F01C0F60002515C7C
:1006E000C84040F20801C2F200010860042000F096
:1006F00085FD0F2000F008F800281CBF012080BDF8
:1007000000F056F8002080BDB0B540F20005C2F2FE
:1007100000052978E1B304464EF21000CEF2000045
:100720000068400710D400F0B7FD022824D001284B
:100730001AD078BB40F20800C2F2000000682978A5
:100740004FF4FA5207E000BF40F20800C2F2000086
:1007500000684FF47A72B2FBF1F1B0FBF1F000F0F7
:1007600089FDA8B91BE000BF28784FF47A71B1FB6E
:10077000F0F04FF4FA4106E028784FF47A71B1FBBB
:10078000F0F04FF40041B1FBF0F000F073FD30B138
:100790000120B0BD002000F06DFD0028F8D14FF021
:1007A000FF302146002200F005F800206C60B0BD4B
:1007B0007047000010B54EF60C5CCEF2000CDCF871
:1007C0000030C3F3022E8EF00704042C28BF04244B
:1007D000BEF103034FF0FF3E38BF00230EFA04F4CE
:1007E000A14399400EFA03F39A43114300F00F021C
:1007F00000F160430901043A03F5644362440028B0
:1008000048BF02F10C03197010BD00004EF60C51E8
:10081000CEF200010A684FF6FF031A4060F30A2285
:1008200042F0806040F0FD70086070472DE9F043B1
:1008300081B0002800F0D08042F20008C4F2020823
:100840000446D8F800000D4600F00F0081420DD993
:10085000D8F8000020F00F002843C8F80000D8F8AE
:10086000000000F00F00A84240F0B680206840F67B
:100870002047C106C4F202470CD561693A6870236B
:1008800003EA1222914205D93A6822F4E04242EA90
:100890000121396001070CD521693A68702303EA08
:1008A0001212914205D93A6822F4E06242EA01113B
:1008B000396041070AD5E1683A6802F07002914256
:1008C00004D93A6822F070021143396081070AD5D1
:1008D000A1683A6802F00F02914204D93A6822F006
:1008E0000F0211433960C00768D1206881070AD51B
:1008F000A1683A6802F00F02914204D23A6822F0ED
:100900000F0211433960D8F8001001F00F018D4239
:100910000CD2D8F8001021F00F012943C8F80010BC
:10092000D8F8001001F00F01A94255D141070AD5AE
:10093000E1683A6802F07002914204D23A6822F00B
:1009400070021143396001070CD521693A687023A0
:1009500003EA1212914205D23A6822F4E06242EAB6
:1009600001113960C0060CD560693968702202EA4D
:100970001121884205D2396821F4E04141EA002082
:10098000386000F083F8396841F2425201F00F01FB
:10099000C0F60002525C40F20401C2F20001096894
:1009A00040F2080320FA02F2C2F2000308461A607D
:1009B00001B0BDE8F043FFF7A7BE00BF606857F87D
:1009C000201C01280CD0022804D003285AD1890108
:1009D00002D507E0890305D4012001B0BDE8F0830A
:1009E0008905F9D557F8041C21F00301084347F89D
:1009F000040CFFF735FE61680646032941F2883989
:100A000039D0022929D0012910D100BF57F8040C90
:100A100000F0180008283FF468AFFFF721FE801BA4
:100A200048454FF00300F1D90DE000BF57F8040C22
:100A300010F0180F3FF459AFFFF712FE801B484526
:100A40004FF00300F2D901B0BDE8F083FFF708FED4
:100A5000801B48454FF00300F5D857F8040C00F010
:100A600018001028F2D140E7FFF7FAFD801B484537
:100A70004FF00300E7D857F8040C00F018001828CE
:100A8000F2D132E78907A7D5ACE7000080B540F680
:100A90000041C4F20241C86900F01800082802BFF2
:100AA00040F60010C0F23D0080BDC86910F0180F7C
:100AB00034D0C86900F01800102802BF47F6400083
:100AC000C0F27D1080BDC86900F01800182849F2F6
:100AD0000000C0F2D03066D1D1F828E08A6AC2F3B3
:100AE000052C8A6A8B6BBCF1000F04BF002080BD0F
:100AF000DB08D20603EAE2726FF35F3200EE102ADF
:100B00000EF00302B8EE400A032A15D0012A17D1CD
:100B10000A68920618D49FED251A1DE00868800621
:100B200049F20000C0F2D03058BF80BD0968C1F35F
:100B3000C101C84080BD00BF9FED1B1A0CE000BF83
:100B40009FED1B1A08E000BF0A68C2F3C102D04043
:100B500001EE100AB8EE411A02EE10CA486BB8EE68
:100B6000422A6FF35F2081EE021A02EE100A9FED17
:100B7000113AB8EE422A20EE030A486B30EE020A20
:100B8000B7EE002AC0F3462030EE020A013021EE13
:100B9000000A01EE100AB8EE411A80EE010ABCEE1E
:100BA000C00A10EE100A80BD20BCBE4B0024744C5D
:100BB0000024744A00000039002804BF0120704757
:100BC0002DE9F04381B040F6004740F6F049044675
:100BD000C4F20247C4F20249F86959F8C81C2278E5
:100BE00000F01808D00601F003062AD5B8F1080F66
:100BF0001CD0B8F1180F08BF022E17D0E169386871
:100C0000002900F06D8140F480703860FFF728FD06
:100C1000054600BF386880050CD4FFF721FD401B56
:100C200002284FF00300F5D958E200BFE069002820
:100C300000F0E480B869216A20F47C1040EA0140A9
:100C4000B8612078C00719D0B8F1100F12D0B8F1F0
:100C5000180F08BF032E0DD061683868B1F5A02FBA
:100C600060DA002900F0B081B1F5803F00F0CE815C
:100C70009EE100BF6068002800F0C08020788007F7
:100C800077D5B8F1000F21D0E068B8F1180F08BF90
:100C9000012E55D03968002800F06681206921F0C6
:100CA000180108433860386840F001003860FFF7E9
:100CB000D7FC05463868800754D4FFF7D1FC401BA9
:100CC00002284FF00300F5D908E200BFE0680028D1
:100CD00000F094803968206901F01801814231D018
:100CE000396821F0180108433860FFF7CFFE396AF0
:100CF00041F2425201F00F01C0F60002515C40F295
:100D0000080201F01F0120FA01F140F20400C2F2D2
:100D100000000068C2F200021160FFF7F5FC002835
:100D20006CD10FE000F06A81B1F5A81F40F040815E
:100D300040F480203860386840F4801064E100BFDF
:100D400000285BD0FFF78CFC054600BF38688007A1
:100D500008D4FFF785FC401B0228F7D9032001B017
:100D6000BDE8F0833869616920F4FE0040EA014083
:100D700038612078000745D4207840075CD420787B
:100D8000800600F17F80A56AA5B3B8F1180F40F086
:100D9000C98059F8C81C59F8BC0C012D2ED0E26A44
:100DA00001F00303934229D1C1F30521226B914243
:100DB00024D1626B01466FF35F21013A91421DD14C
:100DC000A16BC0F3462201398A4217D1E16BC0F30F
:100DD000064201398A4211D1216CC0F30660013903
:100DE00088420BD159F8B80CE16CC0F3CC008842B2
:100DF00040F0E881002001B0BDE8F083012001B09F
:100E0000BDE8F083A169D9F80000002952D040F074
:100E10008060C9F80000FFF723FC0546D9F8000000
:100E20000001A9D4FFF71CFC401B0228F6D90320BF
:100E300001B0BDE8F08300BF4FF62446CFF6FF7641
:100E4000B859C00712D1B85940F00100B851FFF7A6
:100E500007FC0546B859C00708D1FFF701FC401B45
:100E600002284FF00300F5D938E100BFA168D9F896
:100E70000000042946DC002900F0EA80012900F086
:100E80001781D5E0616A3868002900F07F8040F45E
:100E900080503860FFF7E4FB054600BF38688004E7
:100EA0003FF571AFFFF7DCFB401B02284FF003005A
:100EB000F4D913E120F08060C9F80000FFF7D0FBFF
:100EC000054600BFD9F8000000017FF555AFFFF7D8
:100ED000C7FB401B02284FF00300F3D9FEE000BF20
:100EE00020F480703860FFF7BBFB0546386880054A
:100EF0007FF5A7AEFFF7B4FB401B02284FF00300BD
:100F0000F4D9EBE0052900F0C780852940F09080F6
:100F100040F00400C9F80000D9F8000040F080005B
:100F2000C2E000BF386820F080703860FFF798FB9F
:100F3000022D05460CD100BF3868800140F1D280F7
:100F4000FFF78EFB401B02284FF00300F4D9C5E0E9
:100F50003868800140F12881FFF782FB401B02289E
:100F60004FF00300F4D9B9E021F001003860FFF739
:100F700077FB0546386880077FF5FBAEFFF770FB0F
:100F8000401B02284FF00300F4D9A7E020F4805062
:100F90003860FFF765FB0546386880047FF5F3AEDF
:100FA000FFF75EFB401B02284FF00300F4D995E0E9
:100FB00020F480303860386820F480203860386849
:100FC00020F4801024E000BF20F4803038603868BE
:100FD00020F480103860386820F480203860FFF7F3
:100FE0003FFB0546386880037FF548AEFFF738FBC6
:100FF000401B64284FF00300F4D96FE040F48020D8
:101000003860386820F480103860386840F48030E8
:101010003860FFF725FB0546386880033FF52EAEA4
:10102000FFF71EFB401B64284FF00300F4D955E086
:1010300020F00100C9F80000D9F8000020F00400F9
:10104000C9F80000D9F8000020F0800032E000BFAD
:1010500020F00100C9F80000D9F8000020F080005D
:10106000C9F80000D9F8000020F00400C9F8000019
:10107000FFF7F6FA054641F2883600BFD9F80000BE
:1010800080077FF57CAEFFF7EBFA401BB0424FF0D4
:101090000300F3D922E000BF40F00400C9F80000CB
:1010A000D9F8000020F08000C9F80000D9F800004D
:1010B00040F00100C9F80000FFF7D2FA054641F2FE
:1010C000883600BFD9F8000080073FF558AEFFF71B
:1010D000C7FA401BB0424FF00300F3D901B0BDE89E
:1010E000F08300BF59F8C80C43F6037104F12C03D8
:1010F00088430ECB084340EA0220A16B49F8C80C94
:101100004FF47E4202EB4121E26B581E4FF4FE0386
:1011100089B203EB02426FF35F20084402F4FE0140
:10112000226C4FF0FE4303EB0262084402F0FE41E2
:10113000084449F8BC0C59F8C80C20F0100049F8D4
:10114000C80CE06CC00049F8B80C59F8C80C40F065
:10115000100049F8C80C59F8C80C616C20F00C005C
:10116000084349F8C80C59F8C80CA16C20F02000BD
:10117000084349F8C80C59F8C80C40F4803049F8C5
:10118000C80C386840F080703860FFF769FA044690
:10119000386880013FF52EAEFFF762FA001B022887
:1011A0004FF00300F4D999E759F8C80C4FF6FC71D9
:1011B000CFF6F871084049F8C80C002001B0BDE82E
:1011C000F08300BF59F8C80C20F0100049F8C80C93
:1011D000FFF746FA0546FFF743FAA842FBD0E06C5A
:1011E000C00049F8B80C59F8C80C40F0100049F894
:1011F000C80C002001B0BDE8F0830000042888BFBF
:101200007047DFE800F0031B13352D004EF210008D
:10121000CEF20000016821F00401016040F6E440D4
:10122000C4F20240016821F00C0120E04EF21000EF
:10123000CEF200000168022206E000BF4EF210006C
:10124000CEF200000168012221F00401016040F6A5
:10125000E440C4F20240016862F3830107E000BF8A
:101260004EF21000CEF20000016841F0040101606E
:1012700070470000411E0020B0EB116F1CBF012021
:1012800070474EF21002CEF2000251609060116879
:1012900041F00301116070474EF21000CEF20000E1
:1012A0000068400744BF0420704740F6E440C4F2A1
:1012B0000240006802A100F00C000858704700BF0F
:1012C000000000000100000002000000000000001B
:1012D000FEE70000F0B587B0FFF7F0F900F05CF82A
:1012E0000020FFF7C3F918B172B600BFFEE700BFD8
:1012F000FFF7CCF910B172B6FEE700BF002640F64A
:101300008C400696CDE90466CDE90266C4F202403F
:101310000168002441F0040101600168C4F2022464
:1013200001F00401019101990168002241F080015E
:1013300001600168202701F0800101910199016895
:1013400041F0010101600068202100F001000190DE
:1013500001982046FFF77EF94FF4005002ADCDE929
:10136000020604F5006029460496FFF7A9F801205B
:10137000CDE903062046294602970596FFF7A0F817
:1013800007B0F0BDFEE70000FEE700007047000078
:1013900070470000FFF784B910B59CB040F6140404
:1013A00008A85021C4F20244FEF7DEFF0020CDE978
:1013B0000600CDE90400CDE9020054F8040C40F029
:1013C000300044F8040C54F8040C00F03000019094
:1013D00001982068000709D4206800075CBF2068D6
:1013E0005FEA007002D420680007F2D51020089050
:1013F0004FF480700F902020012110900220149152
:101400007D21CDE91200CDE91510CDE917000820A6
:101410001990002408A8CDE91A44FFF7CDFB18B1B4
:1014200072B600BFFEE700BF1F2002900320CDE987
:10143000030402A80521CDE905440794FFF7F6F956
:1014400010B172B6FEE700BF42F20000C4F2020023
:101450000168022262F3051101601CB010BD00009A
:101460004EF6885CCEF2000CDCF80000012240F45D
:101470007000CCF8000040F60040C4F20240026068
:101480000022C261026203684EF6E321CFF6E22138
:101490001940016040F28021C0F201118262C262F3
:1014A00041638263C1630264016821F480210160A9
:1014B00002654FF0006142F21C00C4F202004CF8D9
:1014C000801C50F8041C4A0F062A05D801F0604120
:1014D000B1F1404F18BF70470168C9070BD042F601
:1014E0003B21C0F6190140F8101C46F67F61C4F696
:1014F0005D4140F8101C016841F002010160016883
:1015000041F0010101607047FEE70000FFF7E2FED5
:10151000FEF7BCFFFFF7D2F8FEF78AFFFEF790FF59
:101520006420FEF7B9FFF9E7F1EE100A4FF6FF71FC
:10153000C0F2C03120EA010040F04070E1EE100A34
:1015400070470000000000000000010203040607CD
:1015500008090000781500080000002010000000B5
:10156000BC02000888150008100000206806000072
:10157000DC02000800000000010000001000000074
:081580000090D0030000000000
:040000050800025994
:00000001FF
