:020000040800F2
:10000000C806002025030008092B0008E529000880
:10001000052B0008C1050008753500080000000028
:100020000000000000000000000000007D2B000820
:10003000C505000800000000792B0008812B00088E
:1000400041030008410300084103000800000000CC
:1000500041030008410300084103000800000000BC
:1000600041030008410300080000000041030008AC
:100070004103000841030008410300084103000850
:100080004103000841030008410300084103000840
:100090004103000841030008410300084103000830
:1000A0004103000841030008410300084103000820
:1000B0004103000841030008410300084103000810
:1000C0004103000841030008410300084103000800
:1000D000000000004103000841030008410300083C
:1000E00041030008410300084103000841030008E0
:1000F000410300084103000841030008000000001C
:10010000000000004103000841030008410300080B
:1001100041030008410300084103000841030008AF
:10012000410300084103000841030008410300089F
:100130004103000800000000000000004103000827
:100140004103000800000000000000000000000063
:100150000000000000000000410300080000000053
:1001600000000000000000004103000841030008F7
:10017000000000000000000000000000000000007F
:10018000000000000000000000000000000000006F
:10019000000000000000000000000000000000005F
:1001A00000000000000000004103000841030008B7
:1001B000410300084103000841030008410300080F
:1001C0004103000841030008000000000000000097
:1001D00000000000000000000000000041030008D3
:1001E00041030008000000000000000000000000C3
:1001F00000000000000000000000000000000000FF
:100200000000000041030008410300080000000056
:100210000000000041030008000000000000000092
:100220000000000000000000000000004103000882
:100230004103000800000000000000000000000072
:100240000000000000000000000000004103000862
:10025000410300084103000800F002F800F052F8E2
:1002600014A696E8000CB244B344DA4501D100F07C
:1002700049F8BAE80F000FA696E83000A5EB040590
:1002800004EB0607AAEB0704A7F101074FEA1515CF
:100290004FEA3414A4F10104AC4201D300F032F867
:1002A00013F0010F18BFFB1A43F0010300F001F82F
:1002B000DBE718475C3600007C360000103A24BFAC
:1002C00078C878C1FAD8520724BF30C830C144BFBB
:1002D00004680C6070470000704700000023002491
:1002E00000250026103A28BF78C1FBD8520728BF46
:1002F00030C148BF0B6070471FB503F0C8FA1FBD7F
:1003000010B510BD00F0C4F81146FFF7F5FF03F07B
:10031000ADFA00F0E2F803B4FFF7F2FF03BC00F01F
:10032000A9F800000A4880470A480047FEE7FEE7B0
:10033000FEE7FEE7FEE7FEE7FEE7FEE7FEE7FEE795
:10034000FEE7000004480549054A064B70470000D7
:10035000512C000859020008C8000020C8060020DF
:10036000C8020020C80200200EB5054614460E46FD
:1003700013A000F06EF8284600F06BF816A000F00D
:1003800068F8304600F065F815A000F062F800212A
:100390008DF80B100A210DF10A008DF80A1008E003
:1003A00094FBF1F201FB124294FBF1F4303200F8BD
:1003B000012D002CF4DC00F04CF800F03FF80000B8
:1003C0002A2A2A20617373657274696F6E206661D0
:1003D000696C65643A2000002C2066696C65200019
:1003E0002C206C696E6520004FF0000200B51346AA
:1003F00094469646203922BFA0E80C50A0E80C5045
:10040000B1F12001BFF4F7AF090728BFA0E80C50F5
:1004100048BF0CC05DF804EB890028BF40F8042BEE
:1004200008BF704748BF20F8022B11F0804F18BF5B
:1004300000F8012B704770477047704710B50020D7
:1004400000F01EF8FFF75CFFBDE81040012000F04F
:1004500011B810B5044602E0641C00F004F82078DE
:100460000028F9D110BD08B569468DF800000320B9
:10047000ABBE08BD01491820ABBEFEE72600020056
:1004800010B500F039F8BDE8104000F02FB8704703
:10049000754600F049F8AE4605006946534620F01F
:1004A0000700854618B020B5FFF74CFFBDE8204097
:1004B0004FF000064FF000074FF000084FF0000B20
:1004C000AC46ACE8C009ACE8C009ACE8C009ACE88F
:1004D000C00921F007018D46704710B50446AFF3FF
:1004E00000802046BDE81040FFF715BF002801D06E
:1004F000FFF7C0BF7047000010B5002102A000F058
:1005000017F8012010BD0000534947414252543AA8
:100510002041626E6F726D616C207465726D696EE0
:100520006174696F6E000000004870471000002081
:1005300070B505460C460A2000E06D1CFFF793FFDE
:1005400035B128780028F8D102E0641CFFF78BFF52
:1005500014B120780028F8D1BDE870400A20FFF7D8
:1005600082BF000080B584B00020C4F202202021A8
:100570000022029200F046FA029840F20401C2F210
:100580000001009109684FF4A572019202F08EFA01
:100590000098019A01680120039002F087FA0298FE
:1005A00002F062FA039802F05FFA04B080BD000026
:1005B00080B503F059F803F027F880BD70470000BC
:1005C000FFE7FEE77047000072B6FFE7FEE70000B6
:1005D00080B58EB000200D900C900B900A90099081
:1005E000FFE740F68C40C4F20240016841F004018C
:1005F0000160006800F0040008900898FFE7FFE73A
:1006000040F68C40C4F20240016841F08001016074
:10061000006800F0800007900798FFE7FFE740F6CA
:100620008C40C4F20240016841F0010101600068A1
:1006300000F0010006900698FFE7FFE740F68C40C7
:10064000C4F20240016841F002010160006800F05C
:10065000020005900598FFE70020C4F202200390F5
:10066000202101910022029200F0CCF902984FF46F
:10067000005109910A900B9040F60000C4F202204C
:1006800009A9049100F030F8019B029A039804999B
:10069000099301230A930B920C9200F025F80EB0F7
:1006A00080BD000080B584B0039000F0C1F90290D5
:1006B000039801900198013048B1FFE740F208002B
:1006C000C2F200000178019808440190FFE7FFE7BB
:1006D00000F0AEF90299401A0199884201D2FFE771
:1006E000F6E704B080BD000085B0049003910020BF
:1006F0000090FFE7039800680099C840002800F0C8
:100700006681FFE703980068009A01219140084044
:1007100001900198002800F05681FFE70398406897
:10072000022805D0FFE703984068122828D1FFE788
:10073000049800996FF0030202EA51010844006A2C
:100740000290009800F0070081000F2000FA01F1EC
:100750000298884302900398006900F00F00009906
:1007600001F00701890000FA01F1029808430290A4
:1007700002980499009B02EA530211440862FFE7C1
:1007800004980068029000984100032000FA01F1EB
:100790000298884302900398406800F00300009993
:1007A000490000FA01F10298084302900298049966
:1007B00008600398406801280FD0FFE7039840685D
:1007C00002280AD0FFE703984068112805D0FFE708
:1007D0000398406812282FD1FFE7049880680290A0
:1007E00000984100032000FA01F10298884302902A
:1007F0000398C0680099490000FA01F10298084383
:1008000002900298049988600498406802900099C8
:10081000012000FA01F10298884302900398406891
:10082000C0F30010009900FA01F102980843029009
:10083000029804994860FFE70398406800F00300BD
:1008400003280CD1FFE70398406800F00300032859
:100850001DD1FFE703988068012818D0FFE70498AE
:10086000C068029000984100032000FA01F102984C
:1008700088430290039880680099490000FA01F1CA
:1008800002980843029002980499C860FFE7039811
:10089000C079C006002840F19580FFE7009820F05D
:1008A000030042F26002C4F20242805802900098B3
:1008B00000F00300C1000F2000FA01F10298884304
:1008C000029004984FF60041CBF6FD510840800A93
:1008D000009901F00301C90000FA01F102980843F0
:1008E00002900298009921F00301885042F2000022
:1008F000C4F2024000680290019902988843029075
:1009000003988079C006002805D5FFE70199029871
:1009100008430290FFE7029842F20001C4F202414C
:10092000086042F20400C4F202400068029001999B
:10093000029888430290039880798006002805D5A4
:10094000FFE70199029808430290FFE7029842F2FC
:100950000401C4F20241086042F28400C4F2024081
:100960000068029001990298884302900398807968
:100970008007002805D5FFE70199029808430290F7
:10098000FFE7029842F28401C4F20241086042F299
:100990008000C4F2024000680290019902988843E6
:1009A000029003988079C00728B1FFE70199029867
:1009B00008430290FFE7029842F28001C4F202412C
:1009C0000860FFE7FFE700980130009092E605B06D
:1009D0007047000082B00190ADF8021001980069E4
:1009E000BDF80210084204D0FFE701208DF8010095
:1009F00003E000208DF80100FFE79DF8010002B040
:100A00007047000082B00190ADF802108DF801200F
:100A10009DF8010028B1FFE7BDF802000199886147
:100A200004E0BDF8020001998862FFE702B0704758
:100A300040F2C000C2F200000068704782B001902E
:100A400000208DF8030040F20040C4F2030000686B
:100A5000C00720B1FFE701208DF803000AE040F253
:100A60000041C4F20301086820F00400019A104319
:100A70000860FFE79DF8030002B0704740F20041B4
:100A8000C4F20301086840F00100086000207047CC
:100A900040F20800C2F20000027840F2C001C2F247
:100AA00000010868104408607047000080B582B0FB
:100AB000032000F0CFF800F039FB40F62041C4F2EB
:100AC0000241096801F00F0243F6A801C0F60001D7
:100AD000895CC84040F20001C2F2000108600420B5
:100AE00001F088F90F2000F011F820B1FFE7012094
:100AF0008DF8070005E000F093F800208DF807005E
:100B0000FFE79DF8070002B080BD000080B586B009
:100B100004900020039040F20800C2F20000007828
:100B200020B9FFE701208DF8170075E04EF21000A4
:100B3000CEF2000000684007002812D5FFE740F21F
:100B40000000C2F20000006840F20801C2F2000199
:100B50000A784FF47A71B1FBF2F1B0FBF1F0039037
:100B600040E001F0BBF902900298019040B1FFE72C
:100B70000198012816D0FFE70198022821D02FE024
:100B800040F20000C2F20000006840F20801C2F228
:100B900000010A784FF4FA51B1FBF2F1B0FBF1F029
:100BA00003901EE040F20800C2F2000001784FF40A
:100BB0007A70B0FBF1F14FF4FA40B0FBF1F0039022
:100BC0000FE040F20800C2F2000001784FF47A70A2
:100BD000B0FBF1F14FF40040B0FBF1F0039000E006
:100BE000FFE7FFE7039801F053F920B1FFE7012089
:100BF0008DF8170010E004994FF0FF3000220092AA
:100C000000F010F80098049940F20C02C2F20002C1
:100C100011608DF81700FFE79DF8170006B080BD42
:100C20007047000080B586B0ADF8160004910392BD
:100C300002F0A2FC0290BDF91600019002980499FE
:100C4000039A01F063FF0146019802F09DFC06B093
:100C500080BD000080B582B00190019802F0B6FC22
:100C600002B080BD80B586B004900391049820B98D
:100C7000FFE701208DF817003AE2039842F20001E5
:100C8000C4F20201096801F00F01884216D9FFE79A
:100C900042F20000C4F20200016821F00F01039A41
:100CA00011430160006800F00F000399884204D0EE
:100CB000FFE701208DF817001AE2FFE7049800789B
:100CC000C00600281BD5FFE70498406940F6204184
:100CD000C4F20241096801F4E041B0EB112F0DD9D3
:100CE000FFE740F62041C4F20241086820F4E040EA
:100CF000049A526940EA02200860FFE7FFE704987F
:100D00000078000700281BD5FFE70498006940F62B
:100D10002041C4F20241096801F4E061B0EB111F07
:100D20000DD9FFE740F62041C4F20241086820F4E3
:100D3000E060049A126940EA02100860FFE7FFE7EA
:100D4000049800784007002819D5FFE70498C06888
:100D500040F62041C4F20241096801F07001884266
:100D60000CD9FFE740F62041C4F20241086820F0A8
:100D70007000049AD26810430860FFE7FFE7049808
:100D800000788007002819D5FFE70498806840F6AE
:100D90002041C4F20241096801F00F0188420CD9D8
:100DA000FFE740F62041C4F20241086820F00F003E
:100DB000049A926810430860FFE7FFE70498007800
:100DC000C007002800F0D180FFE70498406803289E
:100DD0000ED1FFE740F60040C4F2024000688001F7
:100DE000002804D4FFE701208DF8170080E135E0EA
:100DF0000498406802280ED1FFE740F60040C4F294
:100E0000024000688003002804D4FFE701208DF829
:100E100017006DE121E00498406801280ED1FFE73A
:100E200040F60040C4F2024000688005002804D467
:100E3000FFE701208DF817005AE10DE040F6004071
:100E4000C4F2024000688007002804D4FFE70120B4
:100E50008DF817004CE1FFE7FFE7FFE740F61C4184
:100E6000C4F20241086820F00300049A526810435B
:100E70000860FFF7DDFD01900498406803281AD14F
:100E8000FFE7FFE740F61C40C4F20240006800F0B4
:100E9000180018280ED0FFE7FFF7CAFD0199401A85
:100EA00041F28931884204D3FFE703208DF817000F
:100EB0001EE1E7E758E00498406802281AD1FFE7EE
:100EC000FFE740F61C40C4F20240006800F0180042
:100ED00010280ED0FFE7FFF7ABFD0199401A41F251
:100EE0008931884204D3FFE703208DF81700FFE023
:100EF000E7E738E00498406801281AD1FFE7FFE7E8
:100F000040F61C40C4F20240006800F018000828B7
:100F10000ED0FFE7FFF78CFD0199401A41F28931AD
:100F2000884204D3FFE703208DF81700E0E0E7E7ED
:100F300018E0FFE740F61C40C4F20240006810F0E1
:100F4000180F0ED0FFE7FFF773FD0199401A41F229
:100F50008931884204D3FFE703208DF81700C7E0EA
:100F6000E8E7FFE7FFE7FFE7FFE70498007880077F
:100F7000002819D5FFE70498806840F62041C4F2A4
:100F80000241096801F00F0188420CD2FFE740F6E8
:100F90002041C4F20241086820F00F00049A9268D0
:100FA00010430860FFE7FFE7039842F20001C4F234
:100FB0000201096801F00F01884216D2FFE742F2F0
:100FC0000000C4F20200016821F00F01039A1143EE
:100FD0000160006800F00F000399884204D0FFE729
:100FE00001208DF8170083E0FFE7049800784007A0
:100FF000002819D5FFE70498C06840F62041C4F2E4
:101000000241096801F0700188420CD2FFE740F606
:101010002041C4F20241086820F07000049AD268AE
:1010200010430860FFE7FFE70498007800070028F6
:101030001BD5FFE70498006940F62041C4F2024145
:10104000096801F4E061B0EB111F0DD2FFE740F633
:101050002041C4F20241086820F4E060049A126959
:1010600040EA02100860FFE7FFE704980078C00636
:1010700000281BD5FFE70498406940F62041C4F2E0
:101080000241096801F4E041B0EB112F0DD2FFE7F6
:1010900040F62041C4F20241086820F4E040049A7E
:1010A000526940EA02200860FFE7FFE700F03EF8DF
:1010B00040F62041C4F20241096801F00F0243F6F4
:1010C000A801C0F60001895CC84040F20001C2F2EC
:1010D0000001086040F20C00C2F200000068FFF757
:1010E00015FD8DF80B009DF80B008DF81700FFE73C
:1010F0009DF8170006B080BD80B500F017F840F6E7
:101100002041C4F20241096801F00F0243F6A80130
:10111000C0F60001895C01F01F0120FA01F140F2E4
:101120000000C2F200000160006880BD89B040F696
:101130001C40C4F20240006800F01800082806D1E4
:10114000FFE740F60010C0F23D00049048E140F691
:101150001C40C4F20240006810F0180F21D1FFE7D4
:1011600040F60040C4F20240006800F02001002078
:10117000B0EB511F0ED0FFE740F60040C4F2024032
:101180000068C0F3C10149F20000C0F2D030C8408D
:10119000049005E049F20000C0F2D0300490FFE76F
:1011A0001DE140F61C40C4F20240006800F0180047
:1011B000102806D1FFE747F64000C0F27D100490EA
:1011C0000CE140F61C40C4F20240006800F0180038
:1011D000182840F0FC80FFE740F62840C4F20240A7
:1011E000016801F0030108910168C1F3052106912E
:1011F0000068C0F300100590059840F63841C4F22D
:101200000241096889B2C90800FB01F000EE100A2A
:10121000B8EE400A8DED020A0698002800F0D3804F
:10122000FFE708980090012809D0FFE700980228FE
:1012300000F08D80FFE70098032864D088E040F636
:101240000040C4F20240006800F020010020B0EB32
:10125000511F33D0FFE740F60040C4F2024000685F
:10126000C0F3C10149F20000C0F2D030C840039081
:101270009DED030AB8EE400A9DED061AB8EE411A3C
:1012800080EE010A40F63440C4F2024000686FF379
:101290005F2001EE100AB8EE411A9DED022A9FED83
:1012A000533A22EE032A31EE021AB7EE002A31EE4B
:1012B000021A20EE010A8DED010A23E09DED060AD7
:1012C000B8EE401A9FED4A0A80EE010A40F634401B
:1012D000C4F2024000686FF35F2001EE100AB8EE1E
:1012E000411A9DED022A9FED413A22EE032A31EE8A
:1012F000021AB7EE002A31EE021A20EE010A8DED35
:10130000010AFFE748E09DED060AB8EE401A9FED9E
:10131000360A80EE010A40F63440C4F2024000680A
:101320006FF35F2001EE100AB8EE411A9DED022A1C
:101330009FED2E3A22EE032A31EE021AB7EE002A72
:1013400031EE021A20EE010A8DED010A24E0FFE7DA
:101350009DED060AB8EE401A9FED260A80EE010ABE
:1013600040F63440C4F2024000686FF35F2001EEA3
:10137000100AB8EE411A9DED022A9FED1C3A22EEAA
:10138000032A31EE021AB7EE002A31EE021A20EEDD
:10139000010A8DED010AFFE740F63440C4F2024035
:1013A000006881B2012000EB512007909DED010AF9
:1013B0009DED071AB8EE411A80EE010ABCEEC00A94
:1013C0008DED040A02E000200490FFE705E049F2F9
:1013D0000000C0F2D0300490FFE7FFE7FFE7FFE72F
:1013E000049809B0704700BF20BCBE4B0000003914
:1013F0000024744C0024744A80B588B00690069886
:1014000028B9FFE701208DF81F0000F0EFBC40F67F
:101410001C40C4F20240006800F01800049040F63E
:101420002840C4F20240006800F0030003900698D0
:101430000078C006002840F18080FFE70498082863
:1014400008D0FFE7049818281DD1FFE70398022869
:1014500019D1FFE70698C06928B9FFE701208DF888
:101460001F0000F0C3BCFFE740F61841C4F2024180
:10147000086820F47C10069A126A40EA024008606C
:10148000FFE7FFE758E00698C06988B3FFE740F63A
:101490000041C4F20241086840F480700860FFF720
:1014A000C7FA0590FFE740F60040C4F2024000682A
:1014B000800500280DD4FFE7FFF7BAFA0599401A16
:1014C000032805D3FFE703208DF81F0000F08EBC32
:1014D000E9E7FFE740F61841C4F20241086820F44A
:1014E0007C10069A126A40EA02400860FFE722E098
:1014F00040F60041C4F20241086820F480700860A0
:10150000FFF796FA0590FFE740F60040C4F202406C
:101510000068800500280DD5FFE7FFF789FA0599D7
:10152000401A032805D3FFE703208DF81F0000F0C1
:101530005DBCE9E7FFE7FFE7FFE706980078C00733
:10154000002800F0B980FFE70498102808D0FFE7D2
:10155000049818280ED1FFE7039803280AD1FFE763
:101560000698406828B9FFE701208DF81F0000F0B9
:101570003DBCA0E0FFE706984068B0F5803F09D188
:10158000FFE740F60041C4F20241086840F48030B1
:10159000086056E00698406888B9FFE740F60041C9
:1015A000C4F20241086820F480300860086820F422
:1015B00080100860086820F48020086040E00698E9
:1015C0004068B0F5A02F11D1FFE740F60041C4F20A
:1015D0000241086840F480200860086820F4801008
:1015E0000860086840F48030086028E00698406889
:1015F000B0F5A81F11D1FFE740F60041C4F2024147
:10160000086840F480200860086840F48010086092
:10161000086840F48030086010E040F60041C4F2F1
:101620000241086820F480300860086820F48020B7
:101630000860086820F480100860FFE7FFE7FFE714
:10164000FFE7FFE706984068D0B1FFE7FFF7F0F942
:101650000590FFE740F60040C4F2024000688003B6
:1016600000280CD4FFE7FFF7E3F90599401A652835
:1016700004D3FFE703208DF81F00B7E3EAE719E082
:10168000FFF7D6F90590FFE740F60040C4F20240AC
:101690000068800300280CD5FFE7FFF7C9F905991A
:1016A000401A652804D3FFE703208DF81F009DE34F
:1016B000EAE7FFE7FFE7FFE70698007880070028E2
:1016C00040F1C380FFE7049840B1FFE70498182871
:1016D0005ED1FFE7039801285AD1FFE70698C0685A
:1016E00020B9FFE701208DF81F007FE3049840BB7D
:1016F000FFE740F60040C4F20240006800F0180026
:101700000699096988421BD0FFE740F60041C4F200
:101710000241086820F01800069A12691043086018
:10172000FFF7EAFC40F20C00C2F200000068FFF78D
:10173000EDF920B1FFE701208DF81F0056E3FFE728
:10174000FFE7FFF775F90590FFE740F60040C4F2A8
:1017500002400068800700280CD4FFE7FFF768F913
:101760000599401A032804D3FFE703208DF81F00D2
:101770003CE3EAE740F61041C4F20241086820F475
:10178000FE00069A526940EA02400860FFE75BE00B
:101790000698C068A8B3FFE740F60041C4F20241D2
:1017A000086820F01800069A12691043086008685B
:1017B00040F001000860FFF73BF90590FFE740F6B5
:1017C0000040C4F202400068800700280CD4FFE704
:1017D000FFF72EF90599401A032804D3FFE70320E9
:1017E0008DF81F0002E3EAE740F61041C4F202411F
:1017F000086820F4FE00069A526940EA0240086038
:1018000021E040F60041C4F20241086820F00100E6
:101810000860FFF70DF90590FFE740F60040C4F2BD
:1018200002400068800700280CD5FFE7FFF700F9A9
:101830000599401A032804D3FFE703208DF81F0001
:10184000D4E2EAE7FFE7FFE7FFE706980078000742
:10185000002849D5FFE70698806910B3FFE740F6F6
:10186000F041C4F20241086840F080600860FFF770
:10187000DFF80590FFE740F6F040C4F20240006850
:10188000000100280CD4FFE7FFF7D2F80599401AB1
:10189000032804D3FFE703208DF81F00A6E2EAE740
:1018A00021E040F6F041C4F20241086820F0806077
:1018B0000860FFF7BDF80590FFE740F6F040C4F27E
:1018C00002400068000100280CD5FFE7FFF7B0F8E0
:1018D0000599401A032804D3FFE703208DF81F0061
:1018E00084E2EAE7FFE7FFE7069800784007002870
:1018F00040F1CC80FFE740F62400C4F202400068CB
:10190000C00708BBFFE740F62401C4F202410868A3
:1019100040F001000860FFF78BF80590FFE740F604
:101920002400C4F202400068C00760B9FFE7FFF777
:101930007FF80599401A032804D3FFE703208DF8A8
:101940001F0053E2EBE7FFE7FFE7069880680128F6
:1019500009D1FFE740F6F041C4F20241086840F0C7
:101960000100086054E00698806888B9FFE740F6F7
:10197000F041C4F20241086820F0010008600868E4
:1019800020F080000860086820F0040008603EE055
:1019900006988068052811D1FFE740F6F041C4F2AF
:1019A0000241086840F004000860086820F08000E8
:1019B0000860086840F00100086027E00698806829
:1019C000852811D1FFE740F6F041C4F202410868D2
:1019D00040F004000860086840F080000860086873
:1019E00040F00100086010E040F6F041C4F202410E
:1019F000086820F001000860086820F00400086012
:101A0000086820F080000860FFE7FFE7FFE7FFE7D6
:101A1000FFE706988068E0B1FFE7FFF709F8059057
:101A2000FFE740F6F040C4F202400068800700285B
:101A30000ED4FFE7FEF7FCFF0599401A41F2893109
:101A4000884204D3FFE703208DF81F00CEE1E8E7CA
:101A50001BE0FEF7EDFF0590FFE740F6F040C4F213
:101A600002400068800700280ED5FFE7FEF7E0FF80
:101A70000599401A41F28931884204D3FFE70320D7
:101A80008DF81F00B2E1E8E7FFE7FFE7069800786E
:101A90008006002849D5FFE70698406A10B3FFE7A3
:101AA00040F60041C4F20241086840F480500860EA
:101AB000FEF7BEFF0590FFE740F60040C4F202408B
:101AC0000068800400280CD4FFE7FEF7B1FF0599F9
:101AD000401A032804D3FFE703208DF81F0085E197
:101AE000EAE721E040F60041C4F20241086820F430
:101AF00080500860FEF79CFF0590FFE740F600402D
:101B0000C4F202400068800400280CD5FFE7FEF70D
:101B10008FFF0599401A032804D3FFE703208DF8AF
:101B20001F0063E1EAE7FFE7FFE70698806A002805
:101B300000F05881FFE70498182800F0D580FFE7EF
:101B40000698806A022840F0A180FFE740F6004135
:101B5000C4F20241086820F080700860FEF768FF58
:101B60000590FFE740F60040C4F2024000688001A3
:101B700000280CD5FFE7FEF75BFF0599401A032804
:101B800004D3FFE703208DF81F002FE1EAE7FFE70A
:101B900040F62841C4F20241086843F603729043BC
:101BA000069BDA6A1B6B42EA03221043086006991F
:101BB000486BD1F838C0CB6B0A6C01386FF35F20EB
:101BC0004FF60061CFF6FF7101EB4C2189B208445A
:101BD0000021CFF6FF7101EB034101F4FE0108443F
:101BE0004FF07F4101EB026101F0FE41084440F6F5
:101BF0003441C4F202410860FFE740F62841C4F2D4
:101C000002410091086820F0100008600698C06C3E
:101C1000C00040F63842C4F202421060086840F04A
:101C200010000860086820F00C00069A526C1043FF
:101C30000860086820F02000069A926C1043086043
:101C4000086840F48030086040F60041C4F2024168
:101C5000086840F080700860FEF7EAFE0590FFE734
:101C600040F60040C4F202400068800100280CD415
:101C7000FFE7FEF7DDFE0599401A032804D3FFE7CE
:101C800003208DF81F00B1E0EAE72CE040F60041A8
:101C9000C4F20241086820F080700860FEF7C8FEB8
:101CA0000590FFE740F60040C4F202400068800162
:101CB00000280CD5FFE7FEF7BBFE0599401A032864
:101CC00004D3FFE703208DF81F008FE0EAE740F61A
:101CD0002841C4F2024108684FF6FC72CFF6F87250
:101CE00010400860FFE77CE040F62840C4F2024064
:101CF0000068029040F63440C4F20240006801904F
:101D00000698806A012837D0FFE7029800F00300A8
:101D10000699C96A88422FD1FFE7029800F47C51E6
:101D20000698006BB0EB112F26D1FFE701986FF3F7
:101D30005F200699496B013988421DD1FFE7BDF844
:101D400004100698806B0138B0EB512F14D1FFE7D7
:101D5000019800F4FE010698C06B0138B0EB114FFA
:101D60000AD1FFE7019800F0FE410698006C0138A7
:101D7000B0EB116F04D0FFE701208DF81F0035E0B4
:101D800040F63840C4F20240006881B20698C06C48
:101D9000B0EBD10F24D0FFE740F62841C4F2024156
:101DA000086820F010000860FEF742FE0590FFE78B
:101DB000FEF73EFE0599401A08B9FFE7F8E70698D6
:101DC000C06CC00040F63841C4F20241086040F6E1
:101DD0002841C4F20241086840F010000860FFE7A3
:101DE000FFE7FFE700208DF81F00FFE79DF81F00C9
:101DF00008B080BD82B0019001980090042843D8BB
:101E00000099DFE801F00C1D2F4103004EF2100194
:101E1000CEF20001086840F00400086035E04EF2A0
:101E20001001CEF20001086820F00400086040F6BE
:101E3000E441C4F20241086820F00C00086024E08C
:101E40004EF21001CEF20001086820F00400086094
:101E500040F6E441C4F202410868012262F38300C3
:101E6000086012E04EF21001CEF20001086820F086
:101E70000400086040F6E441C4F20241086802220E
:101E800062F38300086000E0FFE702B070470000E3
:101E900082B0009000980138B0F1807F03D3FFE753
:101EA0000120019016E0009801384EF21401CEF2A4
:101EB000000108604EF21801CEF200010020086017
:101EC0004EF21002CEF20002116841F003011160DF
:101ED0000190FFE7019802B07047000083B04EF216
:101EE0001000CEF2000000684007002803D5FFE78D
:101EF0000420029020E040F6E440C4F20240006872
:101F000000F00C0001900198009040B1FFE70098AC
:101F1000042807D0FFE70098082806D008E0002032
:101F2000029008E00120029005E00220029002E009
:101F300000200290FFE7FFE7029803B0704700001F
:101F400084B00290019100200090FFE7029890F881
:101F50003C00012804D1FFE702208DF80F007AE051
:101F60000299012081F83C00FFE7FFE7009820F08C
:101F7000FF000199C96808430090009820F4407060
:101F80000199896808430090009820F480600199C5
:101F9000496808430090009820F40060019909689E
:101FA00008430090009820F4805001990969084383
:101FB0000090009820F4005001994969084300906E
:101FC000009820F480400199096B08430090009824
:101FD00020F470200199896940EA0140009000983E
:101FE00020F080500199C969084300900298006868
:101FF00042F60041C4F2010188421ED1FFE7009879
:1020000020F470000199896A40EA0150009000981C
:1020100020F080700199096A08430090009820F030
:1020200000700199496A08430090009820F0005020
:102030000199C96A08430090FFE70098029909686E
:102040004864FFE70299002081F83C00FFE7002088
:102050008DF80F00FFE79DF80F0004B070470000F7
:1020600085B003900291FFE7039890F83C000128A7
:1020700004D1FFE702208DF8130068E003990120E6
:1020800081F83C00FFE7FFE70399022081F83D005B
:102090000398006840680190039800688068009089
:1020A0000398006842F60041C4F2010188420AD157
:1020B000FFE7019820F470000190029841680198B0
:1020C00008430190FFE701984FF68F71CFF6FF515B
:1020D0000840019002980168019808430190019816
:1020E0000399096848600398006842F60041C4F209
:1020F000010188420FD0FFE703980068B0F1804FDC
:1021000009D0FFE70398006840F20041C4F20001E3
:1021100088420ED1FFE7009820F0800000900298DE
:1021200081680098084300900098039909688860C6
:10213000FFE70399012081F83D00FFE703990020A4
:1021400081F83C00FFE700208DF81300FFE79DF8C1
:10215000130005B07047000080B582B00090009871
:1021600020B9FFE701208DF8070045E0009890F8BE
:102170003D0040B9FFE70099002081F83C0000983D
:1021800000F03EF8FFE70099022081F83D00009939
:1021900051F8040B00F08EFE0099012081F84800F0
:1021A000FFE70099012081F83E00009981F83F0087
:1021B000009981F84000009981F84100009981F868
:1021C0004200009981F84300FFE7FFE700990120F2
:1021D00081F84400009981F84500009981F8460093
:1021E000009981F84700FFE70099012081F83D0040
:1021F00000208DF80700FFE79DF8070002B080BDC2
:1022000082B001900198006842F60041C4F20101D9
:10221000884210D1FFE7FFE740F6A440C4F2024035
:10222000016841F400610160006800F40060009002
:102230000098FFE7FFE702B07047000080B586B066
:102240000490039100208DF80B00FFE7049890F8AC
:102250003C00012804D1FFE702208DF81700EDE0D3
:102260000499012081F83C00FFE7FFE70499022070
:1022700081F83D00049800688068019001984FF64D
:102280008871CFF6CE7108400190019820F47F400C
:10229000019001980499096888600398006800908B
:1022A000002800F0B180FFE70098102800F0AC8013
:1022B000FFE70098202800F0A780FFE7009830286B
:1022C00000F0A280FFE70098402800F09080FFE730
:1022D0000098502871D0FFE7009860287AD0FFE777
:1022E0000098702845D0FFE70098B0F5805F3FD098
:1022F000FFE70098B0F5005F50D0FFE70098B0F519
:10230000801F00F08180FFE70098B0F1101F7BD0A4
:10231000FFE700982021C0F21001884274D0FFE747
:1023200000983021C0F2100188426DD0FFE700987C
:102330004021C0F21001884266D0FFE7009850218A
:10234000C0F2100188425FD0FFE700986021C0F220
:102350001001884258D0FFE700987021C0F21001A8
:10236000884251D0FFE70098B0F5001F4CD052E0F2
:1023700055E004980068039B5A689968DB6800F090
:1023800029FE0498006880680190019840F0770069
:102390000190019804990968886040E004980068F9
:1023A000039B5A689968DB6800F014FE0498016882
:1023B000886840F48040886031E004980068039A9F
:1023C0005168D26801F084F804980068502100F048
:1023D0001BFE24E004980068039A5168D26801F05B
:1023E0009FF804980068602100F00EFE17E0049842
:1023F0000068039A5168D26801F06AF8049800688E
:10240000402100F001FE0AE0049800680399096881
:1024100000F0FAFD03E001208DF80B00FFE70499BE
:10242000012081F83D00FFE70499002081F83C007D
:10243000FFE79DF80B008DF81700FFE79DF81700E8
:1024400006B080BD80B588B007900020069005904A
:102450000490039002900798006842F60041C4F28D
:102460000101884220D1FFE7FFE740F68C40C4F22B
:102470000240016841F002010160006800F00200C2
:1024800001900198FFE7C0200290022003900020F5
:10249000049005900E20069040F20040C4F2022005
:1024A00002A9FEF721F9FFE708B080BD80B586B02C
:1024B00004900391029200208DF80700FFE7049832
:1024C00090F83C00012804D1FFE702208DF81700A6
:1024D000C0E00499012081F83C00FFE7FFE7029883
:1024E0000090142800F2A7800099DFE801F00BA407
:1024F000A4A424A4A4A43EA4A4A457A4A4A471A402
:10250000A4A48A0004980068039900F095FD04983B
:102510000168886940F0080088610498016888694A
:1025200020F00400886103980269049801688869B2
:102530001043886183E004980068039900F0E6FD89
:1025400004980168886940F4006088610498016813
:10255000886920F4806088610398026904980168A2
:10256000886940EA0220886169E00498006803995C
:1025700000F03CFE04980168C86940F00800C8619A
:1025800004980168C86920F00400C86103980269D2
:1025900004980168C8691043C86150E00498006855
:1025A000039900F091FE04980168C86940F4006046
:1025B000C86104980168C86920F48060C861039804
:1025C000026904980168C86940EA0220C86136E0DF
:1025D00004980068039900F0E7FE04980168086D0C
:1025E00040F00800086504980168086D20F00400B8
:1025F00008650398026904980168086D104308652E
:102600001DE004980068039900F018FF0498016821
:10261000086D40F40060086504980168086D20F4B6
:10262000806008650398026904980168086D40EAB3
:102630000220086503E001208DF80700FFE7FFE7AF
:102640000499002081F83C00FFE79DF807008DF811
:102650001700FFE79DF8170006B080BD80B582B077
:102660000090009820B9FFE701208DF8070045E0B1
:10267000009890F83D0040B9FFE70099002081F8EC
:102680003C00009800F03EF8FFE70099022081F836
:102690003D00009951F8040B00F00CFC009901205A
:1026A00081F84800FFE70099012081F83E00009979
:1026B00081F83F00009981F84000009981F84100BD
:1026C000009981F84200009981F84300FFE7FFE795
:1026D0000099012081F84400009981F84500009993
:1026E00081F84600009981F84700FFE70099012032
:1026F00081F83D0000208DF80700FFE79DF80700F6
:1027000002B080BD81B0009001B0704780B58EB03E
:102710000C900B910B9828B9FFE70C9890F83E00AD
:10272000099034E00B98042805D1FFE70C9890F845
:102730003F00089028E00B98082805D1FFE70C9887
:1027400090F8400007901CE00B980C2805D1FFE79B
:102750000C9890F84100069010E00B98102805D1D5
:10276000FFE70C9890F84200059004E00C9890F870
:1027700043000590FFE705980690FFE7069807904D
:10278000FFE707980890FFE708980990FFE7099886
:10279000012804D0FFE701208DF8370092E00B9864
:1027A00028B9FFE70C99022081F83E0038E00B9829
:1027B000042806D1FFE70C99022081F83F0004901D
:1027C0002CE00B98082806D1FFE70C99022081F82D
:1027D000400003901FE00B980C2806D1FFE70C99EE
:1027E000022081F84100029012E00B98102806D1D7
:1027F000FFE70C99022081F84200019005E00C9956
:10280000022081F843000190FFE701980290FFE762
:1028100002980390FFE703980490FFE70498FFE70E
:102820000C9800680B99012200F0B8FB0C98006826
:1028300042F60041C4F20101884207D1FFE70C983B
:102840000168486C40F400404864FFE70C98006859
:1028500042F60041C4F2010188420FD0FFE70C9814
:102860000068B0F1804F09D0FFE70C98006840F293
:102870000041C4F20001884219D1FFE70C980068BA
:1028800080680721C0F2010108400A900A980628D2
:102890000CD0FFE70A98B0F5803F07D0FFE70C980F
:1028A0000168086840F001000860FFE706E00C9846
:1028B0000168086840F001000860FFE700208DF81B
:1028C0003700FFE79DF837000EB080BD80B586B0B9
:1028D00005900491059800680499002200F05EFBC1
:1028E0000598006842F60041C4F2010188421BD1FC
:1028F000FFE7FFE705980068006A41F211110842FE
:1029000010D1FFE705980068006A44F2444108428C
:1029100007D1FFE705980168486C20F4004048643F
:10292000FFE7FFE7FFE7FFE7FFE705980068006ABA
:1029300041F21111084210D1FFE705980068006AC2
:1029400044F24441084207D1FFE70598016808684E
:1029500020F001000860FFE7FFE7FFE7049828B9CF
:10296000FFE70599012081F83E0038E0049804282B
:1029700006D1FFE70599012081F83F0003902CE084
:102980000498082806D1FFE70599012081F8400046
:1029900002901FE004980C2806D1FFE7059901205A
:1029A00081F84100019012E00498102806D1FFE759
:1029B0000599012081F84200009005E00599012069
:1029C00081F843000090FFE700980190FFE701982D
:1029D0000290FFE702980390FFE70398FFE70020CB
:1029E00006B080BDFFE7FEE780B50020FEF726F8C1
:1029F00018B1FFE7FDF7E8FDFFE7FEF73FF818B174
:102A0000FFE7FDF7E1FDFFE780BD000080B5FEF7C1
:102A10004DF800F0B9F8FFF7E7FFFDF7D9FD00F03A
:102A2000A3F900F001F880BD7047000080B584B0C4
:102A30000390029102984CF6CD41CCF6CC41A0FB1C
:102A40000110C0080290029818B9FFE70120019018
:102A500002E002980190FFE7019802900398029922
:102A600000F076FE04B080BD80B582B00190019880
:102A7000012801D8FFE70AE043F6C800C0F60000CD
:102A800043F6E801C0F600013722FDF76DFC019A1C
:102A900043F6B800C0F6000000EBC20150F8320067
:102AA0004968FFF733FE02B080BD000080B584B0F6
:102AB0000390029101920398012801D8FFE70AE0F0
:102AC00043F6C800C0F6000043F6E801C0F6000176
:102AD0002D22FDF749FC039A43F6B800C0F600002A
:102AE00000EBC20150F832004968FFF7EFFE03988F
:102AF000019900F005FE03980299FFF797FF04B0D3
:102B000080BD0000FFE7FEE7FFE7FEE788B0079023
:102B100006910592079800F0070004900498C0F110
:102B20000700052803D3FFE70420019004E0049880
:102B3000C0F107000190FFE701980390049804306A
:102B4000062803D8FFE70020009003E0049803382C
:102B50000090FFE70098029006980399012202FA7C
:102B600001F101390840029B984005999A40013AC9
:102B70001140084308B070477047000070470000DC
:102B800080B5FDF785FF80BD80B59CB008A85021B9
:102B9000FDF72AFC00200790069005900490039012
:102BA0000290FFE740F61000C4F20240016821F0F5
:102BB00030010160006800F0300001900198FFE7EB
:102BC000FFE740F61400C4F20240006800F008007D
:102BD000082801D0FFE7F4E7102008904FF4807038
:102BE0000F90202010900220129013900121149138
:102BF00032211591169017901890082019900020F6
:102C00001A901B9008A8FEF7F7FB18B1FFE7FDF735
:102C1000DBFCFFE71F2002900320039000200490BC
:102C200005900690079002A80421FEF71BF818B142
:102C3000FFE7FDF7C9FCFFE742F20001C4F2020121
:102C40000868022262F3051008601CB080BD000015
:102C500081B04EF68851CEF20001086840F4700051
:102C6000086040F60042C4F202420120106040F6C3
:102C70001C41C4F202410020086040F62041C4F229
:102C80000241086011684EF6E323CFF6E2231940B3
:102C9000116040F62841C4F20241086040F62C4120
:102CA000C4F20241086040F63443C4F2024340F2E9
:102CB0008021C0F20111196040F63843C4F202438A
:102CC000186040F63C43C4F20243196040F64041AC
:102CD000C4F202410860116821F48021116040F6BD
:102CE0005041C4F2024108604EF60851CEF2000194
:102CF0004FF00060086042F21800C4F20200006861
:102D000000F0604000900098B0F1604F05D0FFE700
:102D10000098B0F1404F24D1FFE742F21C00C4F20A
:102D200002000068C00778B1FFE742F20C01C4F26C
:102D3000020142F63B20C0F61900086046F67F60AB
:102D4000C4F65D400860FFE742F21C01C4F20201D4
:102D5000086840F002000860086840F00100086060
:102D6000FFE701B07047000080B59EB000200190E1
:102D70001D901C901B901A90199018901790169007
:102D800015901490139012901190109003A8342174
:102D9000FDF72AFB019940F27400C2F20000029094
:102DA00042F60042C4F201020260416081604FF4C9
:102DB0007A72C2600161416180218161FFF7CCF9C3
:102DC00018B1FFE7FDF700FCFFE74FF480501A90C1
:102DD00040F27400C2F200001AA9FFF72FFA18B1EE
:102DE000FFE7FDF7F1FBFFE740F27400C2F20000DD
:102DF000FFF734FC18B1FFE7FDF7E6FBFFE7002023
:102E000017901890199040F27400C2F2000017A9B0
:102E1000FFF726F918B1FFE7FDF7D6FBFFE76020C3
:102E200010904FF4FA7011900022129213921492A3
:102E30001592169240F27400C2F2000010A9FFF73A
:102E400035FB18B1FFE7FDF7BFFBFFE740F2740069
:102E5000C2F2000010A90422FFF728FB18B1FFE717
:102E6000FDF7B2FBFFE7002000900390049005906F
:102E7000069007904FF40051089109900A900B902A
:102E80004FF000710C910D900E900F9040F2740075
:102E9000C2F2000003A9FFF753F818B1FFE7FDF7EE
:102EA00093FBFFE740F27400C2F20000FFF7CAFA9A
:102EB0001EB080BD83B0029001910298006800901E
:102EC000029842F60041C4F2010188420DD0FFE7AA
:102ED0000298B0F1804F08D0FFE7029840F200411D
:102EE000C4F2000188420AD1FFE7009820F0700088
:102EF000009001984168009808430090FFE702980D
:102F000042F60041C4F2010188420DD0FFE7029869
:102F1000B0F1804F08D0FFE7029840F20041C4F2C0
:102F2000000188420AD1FFE7009820F44070009029
:102F30000198C168009808430090FFE7009820F0CE
:102F4000800001994969084300900098029908603F
:102F5000019880680299C8620198006802998862A5
:102F6000029842F60041C4F20101884205D1FFE710
:102F70000198006902990863FFE7029901204861FE
:102F800002980069C00730B1FFE70299086920F094
:102F900001000861FFE703B07047000084B00390B0
:102FA00002910192029800F01F01012088400090D8
:102FB000009A0399086A904308620198029901F007
:102FC0001F0100FA01F20399086A1043086204B075
:102FD0007047000085B00490039102920193049819
:102FE00080680090009820F47F4000900398029938
:102FF000019A41EA02210143009808430090009899
:103000000499886005B0704783B0029001910298DE
:103010008068009000984FF68F71CFF6CF7108400E
:10302000009001980099084340F007000090009834
:103030000299886003B0704785B0049003910498AA
:10304000006A01900499086A20F00100086204985F
:103050004068009004988069029002984FF68F7142
:10306000CFF6FE7108400290029820F00300029013
:1030700003980168029808430290019820F002002A
:10308000019003988168019808430190049842F6E2
:103090000041C4F2010188420ED1FFE7019820F0FF
:1030A000080001900398C1680198084301900198B5
:1030B00020F004000190FFE7049842F60041C4F2BA
:1030C0000101884213D1FFE7009820F4807000903E
:1030D000009820F40070009003984169009808431C
:1030E000009003988169009808430090FFE70098DA
:1030F000049948600298049988610398406804998B
:10310000486301980499086205B0704785B004903F
:1031100003910498006A01900499086A20F0100055
:1031200008620498406800900498806902900298B0
:1031300048F6FF71CFF6FF6108400290029820F434
:103140004070029003980168029840EA01200290C2
:10315000019820F02000019003988168019840EACE
:1031600001100190049842F60041C4F20101884226
:103170000FD1FFE7019820F0800001900398C1680B
:10318000019840EA01100190019820F04000019060
:10319000FFE7049842F60041C4F20101884215D1CC
:1031A000FFE7009820F480600090009820F4006011
:1031B000009003984169009840EA810000900398CC
:1031C0008169009840EA81000090FFE70098049927
:1031D000486002980499886103984068049988635C
:1031E00001980499086205B07047000085B004900A
:1031F00003910498006A01900499086A20F4807091
:1032000008620498406800900498C069029002988F
:103210004FF68F71CFF6FE7108400290029820F0B1
:1032200003000290039801680298084302900198F5
:1032300020F40070019003988168019840EA012011
:103240000190049842F60041C4F2010188420FD176
:10325000FFE7019820F4006001900398C16801988D
:1032600040EA01200190019820F480600190FFE77E
:10327000049842F60041C4F20101884215D1FFE7EB
:10328000009820F480500090009820F400500090A6
:1032900003984169009840EA011000900398816901
:1032A000009840EA01100090FFE7009804994860F8
:1032B00002980499C861039840680499C86301980A
:1032C0000499086205B0704785B004900391049892
:1032D000006A01900499086A20F4805008620498FA
:1032E000406800900498C0690290029848F6FF7107
:1032F000CFF6FF6108400290029820F440700290DF
:1033000003980168029840EA01200290019820F495
:103310000050019003988168019840EA01300190C3
:10332000049842F60041C4F2010188420FD1FFE740
:10333000019820F4004001900398C168019840EA88
:1033400001300190019820F480400190FFE704983B
:1033500042F60041C4F20101884215D1FFE700980E
:1033600020F480400090009820F4004000900398E2
:103370004169009840EA81100090039881690098A3
:1033800040EA81100090FFE7009804994860029895
:103390000499C861039840680499086401980499E5
:1033A000086205B07047000085B00490039104984E
:1033B000006A01900499086A20F480300862049839
:1033C000406800900498006D029002984FF68F714B
:1033D000CFF6FE71084002900398016802980843F6
:1033E0000290019820F400300190039881680198C0
:1033F00040EA01400190049842F60041C4F2010104
:1034000088420BD1FFE7009820F4803000900398A9
:103410004169009840EA01200090FFE70098049974
:103420004860029804990865039840680499886484
:1034300001980499086205B07047000085B00490B7
:1034400003910498006A01900499086A20F480109E
:1034500008620498406800900498006D02900298F9
:1034600048F6FF71CFF6FF610840029003980168AB
:10347000029840EA01200290019820F40010019087
:1034800003988168019840EA01500190049842F63F
:103490000041C4F2010188420BD1FFE7009820F4FB
:1034A0008020009003984169009840EA81200090B4
:1034B000FFE700980499486002980499086503980A
:1034C00040680499C86401980499086205B070477F
:1034D00085B00490039102920498006A00900499C8
:1034E000086A20F001000862049880690190019840
:1034F00020F0F00001900299019840EA011001903B
:10350000009820F00A00009003990098084300906A
:1035100001980499886100980499086205B0704781
:1035200085B00490039102920498006A0090049977
:10353000086A20F0100008620498806901900198E0
:1035400020F4704001900299019840EA0130019006
:10355000009820F0A00000900399009840EA011024
:10356000009001980499886100980499086205B058
:1035700070470000FFE7FEE74EF60C50CEF2000069
:103580000068C0F30220704782B0ADF806000091D9
:10359000BDF9060000280AD4FFE700980001BDF934
:1035A00006104EF20042CEF2000288540BE0009862
:1035B0000001BDF8061001F00F014EF61452CEF2D4
:1035C00000028854FFE702B07047000083B0029009
:1035D000029800F0070000904EF60C51CEF2000168
:1035E0000868019001984FF6FF0210400190019881
:1035F000009A40EA02200022C0F2FA5210430190E1
:103600000198086003B0704780B582B040F2700046
:10361000C2F200008078012824D1FFE740F20400C4
:10362000C2F2000001680A3101600068B0F5A57FB0
:1036300007D1FFE740F20401C2F200010020086058
:10364000FFE740F20400C2F2000001900168002090
:10365000FFF7ECF901980068C0F5A5710120FFF7AC
:10366000E5F9FFE702B080BD80B582B040F270019D
:10367000C2F2000100910878487040F60000C4F2E0
:1036800002204FF40051FDF7A5F9014600980170A2
:1036900001780020012901900AD1FFE740F2700073
:1036A000C2F200004078B0FA80F040090190FFE7D4
:1036B000019800F0010140F27000C2F20000817038
:1036C000807801281AD1FFE70020C4F202202021CF
:1036D000FDF780F9012808D1FFE70020C4F202209D
:1036E00020210022FDF78EF907E00020C4F202201D
:1036F00020210122FDF786F9FFE7FFE702B080BD38
:1037000082B001900091FFE700984CF6CD43CCF6D3
:10371000CC43A0FB03014FF0FF3000EBD102DDF8FA
:1037200004C043F6B801C0F6000151F83CC0DCF813
:1037300000C0CCF82C20009AA2FB033200EBD20090
:10374000019A51F83210C860FFE702B070470000DC
:1037500086B005900491059943F6B800C0F60000C4
:1037600000EBC100406858B9FFE70498059A43F69A
:10377000B801C0F6000151F832100968486372E0E0
:10378000059943F6B800C0F6000000EBC1004068A0
:1037900004280CD1FFE70498059A43F6B801C0F657
:1037A000000151F8321009688863039059E00599C7
:1037B00043F6B800C0F6000000EBC10040680828DE
:1037C0000CD1FFE70498059A43F6B801C0F6000152
:1037D00051F832100968C86302903FE0059943F63A
:1037E000B800C0F6000000EBC10040680C280CD106
:1037F000FFE70498059A43F6B801C0F6000151F8B6
:10380000321009680864019025E0059943F6B80074
:10381000C0F6000000EBC100406810280CD1FFE7A3
:103820000498059A43F6B801C0F6000151F8321029
:103830000968886400900BE00498059A43F6B80183
:10384000C0F6000151F832100968C8640090FFE723
:1038500000980190FFE701980290FFE7029803901B
:10386000FFE70398FFE706B07047000080B582B01D
:1038700000200190FFF7CAF8FCF7A0FEFCF772FEEB
:10388000FFE7FCF795FE6420FCF70CFFF9E7F1EE8B
:10389000100A4FF6FF71C0F2C03120EA010040F07B
:1038A0004070E1EE100A70470000000000000000C8
:1038B000010203040607080974000020000000004C
:1038C00074000020040000006368616E6E656C493E
:1038D0006E646578203C2054494D5F50574D5F43DE
:1038E00048414E4E454C53002E2E2F557365724164
:1038F00070706C69636174696F6E2F4D63616C2FBA
:103900005372632F4D63616C5F54696D2E630000C9
:10391000303900080000002010000000BC02000840
:103920004039000810000020B8060000DC02000842
:103930000090D003B400000001000000100000005F
:040000050800025994
:00000001FF
